:20000000004B002019590100FDC90110FDC90110FDC90110FDC90110FDC90110FDC90110F8
:1C002000FDC90110FDC90110FDC90110FDC90110FDC90110FDC901103BCA0110A4
:20003C0038C40D00C80000008100000032000F0100C50D00900100004000000096000501D1
:20005C00952B0D00C80000002200000032000F02000000000000000000000000000000008A
:20007C00000000000000000000000000000000000000020000000200020002000000030059
:20009C00040001000000020000000000000000000500010000000700060001000000030026
:2000BC0007000800000000000F0001000100FF0010000800000000001800080000000000CD
:2000DC002200020000000000360001000600000000000000000F0000000000000000000094
:2000FC000000000000000300FFFF00000403FFFF0000FFFF0F00E8030005401F031000016E
:20011C0001000000FF3F0F0008000E0000000000000000000300010F000009010000000042
:20013C000000000000000000000000000000000000000000000000000000000000000000A3
:20015C000000000000000000AD00000100000000FFFFFFFFFFFFFFFF9A1000000000000033
:20017C00000000000000000000000000000000000000000000000000000000000000FAFA6F
:20019C0014000000000000000000000100000101000000000000000000000000000000002C
:2001BC00000000000000000000000000000000000000000000000000000000000000000023
:2001DC0000000000000000000000000000000000000000780008020030000A0000013636DA
:2001FC0001010001020100010301000104010606080400000C0100340D01000F1004010146
:20021C00140100FF1608000020020000220100FF23010001240100FE2501000826020000AE
:20023C0028010001290100012A0200002C01000F2E0200003001000131010008320200FF16
:20025C0034010007350102FF360100003701000138010001390100FF3A01000F3C0200FFA5
:20027C003E01010F3F0100014001041F41010001420100FF43010080440800004E01000882
:20029C004F01000F50010001510100FF5201000A5301008954010001580400005C040000F4
:2002BC006004000064040000680400006C0400007004000074040000780400007C04000092
:2002DC00800100FF810100018201000183010102840100010008000000000000000008045A
:2002FC00FA000000FFFFFF000C1100000000000000001D1100000000000000002E010F0062
:20031C000000FA0000002F0100000000FA000000300100000000FF0000003101000000003B
:20033C00FF00000032010000000003000000330100000000030000003401000000000100FF
:20035C000000350200000000FFFF0000370200000000FF000000390200000000FF000000DA
:20037C003B0200000000FFFF00003D0100000000FF0000003E0100000000010000003F0169
:20039C00000000000100000040010000000007000000412000000000000000006102000034
:2003BC000000FFFF0000630800000000000000006B080000000000000000730800000000CA
:2003DC00000000007B08000000000000000083020500000058020000850100000000100004
:2003FC00000086020000000032000000880200000000320000008A02000000000A000000D5
:20041C00000105090004081000040810020402010101010902000120181A18182C34041E5D
:20043C00000C0E020B040B0A070800110F00A6AAACA4A9A9A399B19ABCB6A8313117191AF2
:20045C0021241B1D1F31313331313118191A22311C1E20313134310000000500BD00B70084
:20047C00B100BC001C00300038000800380102000000000002000000020000000A0000001E
:20049C0002000000020001000000000000000000000000000000000000000000000000003B
:2004BC00000000000E000000C003000080070000000F0000001E0000003C000000780000E7
:2004DC0000F0000000E0010000C003000080070000000F0000001E0000003C000000780004
:2004FC000000F0000000F000010171010101010111010101310101010101800100011001AB
:20051C0061013B001400630173017201620143010001130106013D01350004011201000174
:20053C0000010001000104010401330133013C0144013201360000010001650100013500A1
:20055C00810100010501820183010001660100010001080109010302710230016002110254
:20057C00700201020202020280020002100261023A00410063027302720262024302000275
:20059C00130238000002000204021202000200020002000204020402370037003C024402CE
:2005BC0000023900000200026502000235028102000205028202830200026602000200023D
:2005DC000802090203047104020460041104700402040204010402040004100461040004E3
:2005FC0014046304730472046204430400041304060400040004040412040004000400046F
:20061C0000045104640000040004000444040004000400040004650400043504810464000E
:20063C0005040004830400046604000400040804090400000021400100005110010002EFC6
:20065C00B2000000DB91010001EFB2000000DB9101000301E9000000DB910100042F910131
:20067C000000DB9101000141910100013B91010001DB91010001DB91010001DB9101000005
:20069C00BD60010001DB91010001DB91010001DB91010001DB9101000241910100023B91C5
:2006BC00010002DB91010000BD60010002DB91010002DB91010002B14F010002DB91010040
:2006DC0004A38A000000DB9101000341910100033B91010003EFB2000003EFB2000003DB94
:2006FC009101000301E9000003DB91010000BD60010003DB91010003DB910100044191011A
:20071C0000043B91010004EFB2000004EFB2000004EFB2000004A38A000004DB9101000457
:20073C00DB910100042991010000BD60010001040C003E20004320280046290D0A0043751B
:20075C007272656E742074656D70203D200050726F626C656D207265616420554152542EE8
:20077C000D0A000C436F6E736F6C6520286820666F722068656C70290D0A004279652120E6
:20079C0048697420627574746F6E3120746F207374617274205541525420616761696E0D51
:2007BC000A0056616C696420436F6D6D616E64730D0A2D2D2D2D2D2D2D2D2D2D2D2D2D2D44
:2007DC000D0A683A2068656C700D0A713A207175697420616E642073687574646F776E20C7
:2007FC00554152540D0A633A20636C656172207468652073637265656E0D0A743A20646913
:20081C0073706C61792063757272656E742074656D70657261747572650D0A000001040086
:20083C00003333333333333333333333333333333303010004000000000000000000000064
:20085C0000000000FFFFFFFFFFFFFFFFFFFFFFFFFFFFFFFFFF46485465737400000000005F
:20087C0000000000000000000000000000000000000000000000000045080000010000000E
:20089C00FC0B0000080000004A07000001123456789ABCDEF00000000000000000000000A3
:2008BC000000000003007100300160001100700031022003500480000700100061000000F4
:2008DC001400630073007200620043000000130006000000000004001200000000000000CC
:2008FC00000004000400370037003C024400000000000000000065000000350081000000C9
:20091C00050000008300000066000000000008000900010371030103010301030103010330
:20093C002203020301030003100300030003000300030003000300034203000324030603CA
:20095C00000300030403120325032303250323030403040300030003000344030003000359
:20097C00230300036503210035038103000305030003000300030003250323030803090371
:20099C008F0000008F0001008F0002008F000300900000018F0001019000000290000003B2
:2009BC008F0001048F0000058F0008048F0000048A000006510000007F0001003F00040021
:2009DC003F0002003F0001007F0002007B756E6B6E6F776E2D696E7374616E63652D6E61F0
:2009FC006D657D007B656D7074792D696E7374616E63652D6E616D657D00C0467B7374614C
:200A1C007469632D696E7374616E63652D6E616D657D00C000000102030410000810182083
:200A3C0004040810181C10040810181C00000000080000000000000020000000400000007E
:200A5C006000000000000000060000000200000086000000820000000000008000200080EA
:200A7C000040008000000080000400800008008000008080000080840020808400408084A2
:200A9C0000000000000005800000068000000780000000000000000006088080070880808B
:200ABC000D2007C00E2007C01400C0800240008003008080010880801E0880800940008020
:200ADC00084000800A400080FE000000000000000000000000010000000000000000000069
:200AFC0000000000000000000000000000000000000000000000000000000000251A01009A
:200B1C00E13D0100CD900100F9A10000B9B100006B9101008953010091D7000071910100F3
:200B3C002113010038140000580B0000918D0100A18D0100C18D0100B18D01005172010015
:200B5C009D7C01009987010031000000001000400600000015000000FF00000000000000A3
:200B7C000302FFFFF02B00202000000001030000000000007BC80110C5BC0110D9B2011075
:200B9C0033C20110BDAD0110C1B101106DBA011065BB01101DC0011001600100000000007C
:200BBC00FFFFFFFFFFFFFFFF00000000000000000101010100C20100030000000000000057
:200BDC00E3640000F5520100051400008F4A00003557010029880100179101001D910100E1
:200BFC000000000000000000000000000000000000000000000000000000000000000000D9
:200C1C00400B00002C21002004000000000000000000000014000000580C00001C00000068
:200C3C00FFFFFFFF0000000000000000000000003A01000000000000000000001C00000045
:200C5C0000000000000000006C0C0000000000000800000000000000E1100100F5410100CF
:200C7C004791010025900100F9AD000079DE000000000000ADD60000013C0100000000000B
:200C9C000000000101010000002000400700000011000000FF0000000000000005040000B5
:200CBC00C33B3D3A5D3A713AA10A8F3A0F3BB309495E850A2F3B853B241F0020A420002040
:200CDC000C00000004000000FFFFFFFF0000000000C20100FFFFFFFFF02A00208000000073
:200CFC000100000000000000000000000000010000000100001610160E18151C0212032407
:200D1C0018580302100258010B0101010101010101010101080102010103FF7F0000000033
:200D3C000000000000000000000000000200000000000000FFFFFFFF000000000040024017
:200D5C000B00000027000000FF000000DC0B0000782C0020E80C0000740C00009C28002043
:200D7C00A40C0000FF000100114F010003000000180B000070270020680B00004FDF0000C8
:200D9C0059850100C97A010041B5011095A6011015B8011000BE040A00BE0208FFFFFFFF53
:200DBC00FFFFFFFF3545251502030504702B0020580D0000FF00000000000000000000003A
:200DDC00010000000600050000000040000000000000000001000000959101005B92010095
:200DFC003F4601009B9101005D520100312801004B9201000A0000003020002000000000C2
:110E1C0093ED00007F92010089C30000FD9001000059
:200E30002DE9F043894614460546ADF12C0D694615F09EFD5FEA000800F0C580AD1C022648
:200E5000284602A913F0C9FE071C00F0BC809DF80900814509D0ED19BF1908F10200BF1C5F
:200E7000AD1CBEB2B042EBDCADE0401E05F1020500F08D80401E50D0801E33D0401E26D018
:200E9000401E20D0401E18BF622040F0AC80202F40F0998020462946082217F031FB0835DA
:200EB00004F108000822294617F02AFB05F1080704F110000822394617F022FB07F1080584
:200ED000183408220BE0022F7DD1022207E0202F79DC20460021202211F018FA3A462046B1
:200EF00029467DE0042F6ED120462946022217F007FBAD1C15F8010BA070287800F001001F
:200F1000E0702878C0F3400020712878C0F38000607128784011A07164E00A2F53DD0DF1FC
:200F300012000021162211F0F1F920462946042217F0E6FA2D1D201D0222294617F0E0FA6E
:200F500042F20B0004A914F0A9FABDF81000A188884238DCA81C10F8011BA17110F8011B04
:200F7000E17110F8011B217210F8011BC1F3C202A2720DF1120207F065FE20B39DF82700AD
:200F9000A0819DF81670E78104F1100025E0042F19DD0DF112000021162211F0B7F915F843
:200FB000010B207015F8010B607015F8010BA07015F8011B0DF11202C1F3C20020712846C3
:200FD00007F040FE08B967200DE09DF82700E0809DF81670278104F10A0011220DF1160171
:100FF00017F08EFA00200BB0BDE8F08314F040BE6D
:201000003C000000000000000000000034100000000000000000000001000000000000004F
:1C10200000000000000000000000000001000000000000000800000000000000AB
:20103C003400000000000000000000006810000000000000000000000100000000000000E7
:14105C00010000000000000000000000080000000000000077
:2010700030000000000000000000000098100000040000000000000001000000FFFFFFFF87
:10109000FF00000001000000080000000000000048
:2010A0002C0000000000000000000000C4100000040000000000000001000000FFFFFFFF2F
:0C10C000FFFFFFFF080000000000000020
:2010CC0038140000E410000095A1011091A70110A1C2011009B2011041B80110A5BC011078
:0810EC0085BC0110300000007A
:2010F400280000000000000000000000141100000000000000000000FFFFFFFF0000000093
:081114000800000000000000CB
:20111C00341400003011000065C2011069C101101BC2011091BA011005BC0110E5BB0110EA
:04113C00330000007C
:20114000341400005411000071C20110A5B6011099BF011045B60110B5BA011025BC01104B
:041160003400000057
:201164002400000000000000000000008011000000000000000000000000000008000000AE
:041184000000000067
:20118800240000000000000000000000A41100000000000000000000000000000800000066
:0411A8000000000043
:2011AC00240000000000000000000000C8110000000000000100000000000000080000001D
:0411CC00000000001F
:2011D000000000000C210020040000000000000000000000200000007010000030000000DE
:2011F0001C110000142100200400000000000000000000000C0000003013000018000000F2
:20121000401100001C21002004000000000000000000000024000000481300001800000075
:20123000000000002421002004000000000000000000000010000000A01000002C00000049
:20125000CC1000003421002004000000000000000000000020000000641100002400000070
:20127000FFFFFFFF3C210020040000000000000000000000280000008811000024000000FC
:20129000FFFFFFFF44210020040000000000000000000000580000003C10000034000000E1
:2012B000FFFFFFFF4C210020040000000000000000000000100000006013000018000000F6
:2012D000FFFFFFFF542100200400000000000000000000001C000000AC110000240000006C
:2012F000FFFFFFFF5C21002004000000000000000000000038000000F410000028000000DD
:20131000FFFFFFFF6421002004000000000000000000000054000000001000003C00000078
:1813300018000000000000000000000040130000080000000000000032
:1813480018000000000000000000000058130000080000000000000002
:18136000180000000000000000000000701300000800000000000000D2
:0813780003000000980D0000C5
:0413800014F07EBC2B
:041384000100000064
:0413880000000E0053
:04138C0000000F004E
:041390003200000027
:041394000100000054
:041398008C20002085
:04139C00000200004B
:0413A0004D9101006A
:0413A400FDC901106E
:0413A8000000000041
:0413AC00000000003D
:0413B0000800000031
:0413B4000000220013
:0413B800F41C002001
:0413BC00000000002D
:0413C0000000000029
:0413C400080000001D
:0413C8000000000021
:0413CC00000000001D
:0413D0000000000019
:0413D400080000000D
:0413D8000000000011
:0413DC00000000000D
:0413E0000100000008
:0413E400841F002042
:0413E80006000000FB
:0413EC0001000000FC
:0413F0002C1D002090
:0413F40000000000F5
:0413F80000000000F1
:0413FC0000020000EB
:0414000000000000E8
:0214040070472F
:021406002900BB
:021408000100E1
:02140A002400BC
:02140C003300AB
:02140E003400A8
:021410003000AA
:021412000100D7
:0114140001D6
:0814180003000000A40D000018
:081420000000000000000000C4
:0414280000000100BF
:04142C0000000300B9
:0414300083C4011060
:041434003C14000064
:041438003C14000060
:04143C0000000000AC
:041440009000000018
:041444009000000014
:0414480000000000A0
:04144C00E02000207C
:041450002F8C0100DC
:041454002000000074
:04145800FC0C000088
:04145C00900B0000F1
:0414600009C30110AB
:041464001B54010014
:041468000758010020
:04146C0095C801100E
:0414700097C8011008
:041474000000000074
:041478002C0E000036
:04147C00000A000062
:04148000180A000046
:04148400E809000073
:0214880008005A
:02148A00090057
:02148C0001005D
:02148E0000005C
:01149000015A
:041494000000000054
:041498000000000050
:04149C00000000004C
:0414A0000000000048
:0414A400579201005A
:0414A80021720100AC
:0414AC00797C010046
:0414B000956D010035
:0414B400B769010013
:0414B800C15F01000F
:0414BC009112010088
:0414C000C98E0100D0
:0414C40031450100AD
:0414C8000DC801103A
:0414CC001DC8011026
:0414D0000800000010
:0414D40024000000F0
:0414D80018000000F8
:0414DC0028000000E4
:0414E00020000000E8
:0414E4003C000000C8
:0414E8000C000000F4
:0414EC0034000000C8
:2014F0008D05002161040021A1040021A5040021CD040021710600212107002149070021CF
:201510003B050021010500218B070021AD07002179050021F8B51047F8B50E4600210125C0
:20153000AD0430470D480378D80702D046488121416000F00FF89B070BD0134C2078FF288F
:2015500007D0FF2121700F490F24240220436031C882F8BDF8B50248004700006B02002183
:20157000E54C0000094801E00848000C064C05492278FF2A01D1CA7A22706031C882704600
:20159000801C00470062084018080021070F080800F090F805990A0A6C2A09D108207861AC
:2015B0002069401C38600A312061059100207861F8BD0000F0B4084710B501480047000056
:2015D0008909000000F018F8E1B250290BD0042801D0062807D10D490978C90703D121786B
:2015F000090700D402200A490A780C21114202D0084980220A60FEBDFEB5074908470448F8
:20161000017840229143017004480047C80000211701002100E200E0F1CC000003D1000092
:20163000FFB5054685B0034C2047FFB585B0DE01014C2047F73F0000CB4100000248812106
:20165000024A41601047000000500440674C000070B503461546012906D0002906D0114ACC
:201670002846FFF757FF70BD0F4800E00F480524834203D84008641E002CF9DCE34001200D
:2016900040031818820B012907D00649002380312846FFF741FFE0B270BD0249044B6C317C
:2016B000F6E70000835C0000A0BC862300830D23E8070021F8B51A4E0546716B1948CC0924
:2016D000E401002D11D01849097802290FD0007B044372B60120154F4002B84711482038BA
:2016F0000088C109C90704D016E0C07AF0E7407BEEE70F497463CC61400AC0070CD00120E3
:201710008003316B002D01D0014300E08143084631630749403948630020B84762B6F8BD72
:2017300080020021880000219B0200217B3F00004040044010B5224A0021516121498968B2
:20175000C90009D42149204BCA0598424B6B01D8134300E093434B631D49FFF72BFF10BDB9
:2017700038B51A4D287F002827D11A480088C009C00722D1124C606900281ED1684600F0F5
:201790008FF868460078012817D168464078102813D208206061686A4009400120600E4ADB
:2017B0000021D1620D4A02211160012108432060032108436862206038BD0948804738BD32
:2017D00000400440180000210000930880020021CF680000680000210011044080E200E0A7
:2017F000C33B00000749002800D00420064A72B60978C90701D0105800E0802062B640B2E3
:20181000704700006B0200215860044010B5034CFFF7D2FE20680028FAD110BD0011044000
:2018300010B541200E49C00088470E490246886B496B90244B01C104C90E0B430A49634363
:20185000497D5943094B9B68FFF7EFFE10BD10B5FFF7E6FE040001D1FFF7E2FF204610BD90
:201870007D3C000080500440800200210040044010B501880A05930F084A03D18905890D1B
:20189000112901D0904710BD90470446012803D172B6FFF7C5FF62B6204610BD45260000D3
:2018B00003B40148019001BDA56F000000000000010003000A001F005900EB003902EA041B
:2018D000F9099712EB1FA132784A0A66FA828C9E63B617C964D6EDDEC1E3E0E5FF00000032
:2018F000A36100007F1407134D00F1242E1F133FB00A3F0007FF00003040004001400340F3
:2019100007400F404F40CF40CF41CF43CF47CF4FCF3FCF2FCF1FCF0F000000000F0008003E
:2019300000003F00000040003F000000040068000E00DC00060043001A000500000000001B
:20195000020000003F00000000000400C00000000400C0000000070050C00091007070C066
:201970000091007082312100319110B10070018101B100A18231329110B10191111041810E
:2019900041224F40F106007051C0019130181039833108D01831416F3100319110B18314DA
:2019B00014165B680070251050C00091F4C3C0C02014036F3110410422C082312100319109
:2019D00010B163393110410482C082312100319110B163393110A2C082312100319110B1E5
:2019F000501015310514059200703F6452C0311031066131C102426412C131102139710604
:201A10005131E102426400708A65996588C0208250398039001E9F4041C001301814181A95
:201A300089C0308260398039001EA94041C001301914191A3C64369110B1349110B154B0FE
:201A5000007154A064B0F0800022AF404012B09032B053825339533985643F6411C122C1DA
:201A7000426470C1C26811C1C2C0426470C1C76850C000912772989215161416421053108D
:201A9000F0C12182313131398139313151B070B272652772999270B262107310F0C33182BF
:201AB0002131213981391B107265E2C08231608280318039020061B00071329110B151A014
:201AD00061B0277230C2F36800008012B09032B0007050C000912772999262107310F0C3CE
:201AF000318221312139813951B070B27E652772989270B242105310F0C1218231313139FD
:201B1000813931311A107E6551A061B02772B0C018693F6401C122C1426401C1C2C0426428
:201B3000151A3C64359110B153828564C012B09032B000703F6472C281C0426422C111C1AA
:201B5000426402C011C1426462C031C3426462C311C1426402C311C14264538253398564B5
:201B7000E2C347641122404142C281C8426452C211C1426472C2E1CE426402C281C8426496
:201B900002C201C84264B0C0546900703F6442C201C8426452C211C0426472C2E1C0426449
:201BB00002C001C1426462C001C3426422C101C1426462C301C1426402C301C14264538285
:201BD0008564007061B000711214231C7A4D339110B10070329110B17269007061B00071A8
:201BF0001318321C8649329110B10070339110B17E690070C2C047641510C2C01216476416
:201C100041311514C0C0803105145410A07804040070E6C0863101CC161467106182F0C37A
:201C3000010417140070067305720B720E7250B00071818060B050A092804122C345808018
:201C5000F1C11004301601110114016CD661D761D861D961DA61DB61DC61DE61E061E2617B
:201C7000E461366339639180F2C0210421318280422A1214321601112114016CEE610B6254
:201C9000F4613963EE610B62F4613963E661E661E661E661E661E6619464E661F964E66109
:201CB0002A65E6615665E6614667E6611012B0900E720673057210123090A761F0CF3C672A
:201CD000D4C103C0C0C3546440785091507810926078209270783092807840929078609266
:201CF0003078909110824039F00601101031101400924267E661BCA0E2A054A0F08050225E
:201D10001546408000222B470D6240A02D828D318D391082F1C0100409101A824A391A04D5
:201D30001082803910040E10AB10BC10C21063642972E0CF3C6713B003B0C86653B050B062
:201D500054B064B013B0A5661082E0223846AE660071418001222B47F08010224B46F0225B
:201D7000184764B03122384263B0CE661082E02238467066386264B06F818F318F3DD0DF0B
:201D9000FF923C670071418001222B4764B0F0805022654263B01182C1226046CE660567CC
:201DB0001182D122524670665262618172818131813D8231823DC0EFF19202933C670B62DD
:201DD000B081C091D381978290A2D3187F4EF30B1316E31CA44AC391E3813B149062BA1C37
:201DF0008B46231E8B4AE31C8B4E90B207228B4290A21B1A9662E31CA44AC391E3813B1885
:201E1000AB1CA04E9B1CA24ABC1CA442B2101082D0229D42F0801022A4466364A566A46213
:201E3000AB1094629B10946200703082F1C0100463B00071A86ABC10E0B00070B281C29171
:201E5000D281018212185181121841828131813D121CBF4AE2B032B0B0DFF2923C67F1C72A
:201E70002114C34E12C86291729131B0E1B0007008C006C000C86091709100700182B081EE
:201E9000C091D0811018518110180614E18042828231823D201CE44AE2B02122E84632B06E
:201EB0000510A0DFF5923C672122E842E2A032B031824139F0C00104011EF642181610C04C
:201ED0001030081C04476010103C0610F1C76114FA4E16C8669171818131813D161C014B47
:201EF000769131B006C008C0007061818131813D408280390118F11C174B0114B080C02270
:201F10001747BCB033B090EFF1920F933C67007003A063B064B0EFB05665007140800022D6
:201F30002B4764B02A65EFA00071408000222B4764B003B03862018262818231823D80EF80
:201F5000F19202933C6703A05665E661A2806364E66150B00071E661E092D08200223D47BF
:201F7000C0B20070A080F022594330B002C1623101C0A080001E5243F0225343A0F5603109
:201F9000603953632010101A136F236E11161216546B0070D18100005DC000000000000088
:201FB000000000000000000071850100118A010061260100D5890100659101005F910100AF
:201FD000258A010000000000BD900100252F0100613C0100E5810100299C0000C38B010085
:201FF00089EA0000E564000041700100E15001000000000099460100678E010075D800000E
:20201000F6C0080000004100000001C3100000024210000003C414000004C518000005C602
:2020300018000006C71C000007C920000008CB24000009CD2C00000AD33800000BDA50005C
:20205000000C18B800000D3FA600000E3FA700007FFFFF3F00F6C004000000C31200000162
:20207000C416000002C518000003C61C0000044418000005C820000006C924000007CB2A76
:20209000000008CE32000009D24000000AD85800000BE59000000C2BBC00000E3FAB000068
:2020B0007FFFFF3F00050000ED69010049890100310F0100A5900100D7910100250B010014
:1C20D0002577010005910100119101000B91010010200000652000006520000046
:2020EC002DE9F04FADF1240D14F010FB17F075F8814608200DF0EAF910F0E6FA10B1A5A078
:20210C0017F0C6F9B04C6068406880476068C16804A888476068836804AA002001469847A7
:20212C00A06010B9A3A017F0B3F916F0AFF9A84FC4F8E070A74DC4F8E4500026A4F85C60C1
:20214C00A248C4F8DC00A44BC4F8E830A34AC4F8EC20A349C4F8F01004F5C877C4F86C7100
:20216C0004F1C805C4F8705104F1DC00C4F8740115F0D0F904F51E709B4BC4F878019B4ABD
:20218C00C4F8103104F1A0072262964DC4F87C719749C4F8B85005F16E006162964BC4F822
:2021AC00BC00964A6367934DA26795492567B4F85C70E16747F00100A4F85C00934BC4F8D0
:2021CC003832934AA2618F4FC4F818728E4DC4F8285204F17000C4F88C0115F085F98F4B69
:2021EC00C4F88C338B4FC4F884738E49C4F894138B4AC4F890238D4BC4F89C338A4FC4F855
:20220C0098738C49C4F8A413894AC4F8A023824DC4F88853894BC4F8AC33874FC4F8A8738B
:20222C008849C4F8B413864AC4F8B023B4F85C0084F8806340F01000A4F85C00824BC4F8B7
:20224C00BC33D54FC4F8B873D549C4F8C413D34AC4F8C0237D4D2E706E70D34B2E61D14FF8
:20226C00C4F8CC33D249C4F8C873D04AC4F8D413DFF85C83C4F8D023CF4BCE4FC4F8DC3361
:20228C00CF49C4F8D873CD4AC4F8E413CE4BCD4FC4F8E02308F10E01CC4A1E700888C4F85D
:2022AC00E8730E30167080B215F00AFE07466F6117B916F05AFF6F6900978DF804609DF87B
:2022CC000500D34A06F0030120F0030001438DF805109DF80500434666F383008DF805005C
:2022EC00D8899DF80530108066F307138DF80530ADF8060068696946082216F003F92F6202
:20230C006E6213F0ADFBD14D2878012802D0304603F0E4F9CE48CF4F0670AB463E709BF85B
:20232C000000012802D0304603F0D8F948461DF0FBFA01F095FA15F0E3FD94F82F0413F0A5
:20234C0087F9012003F0CAF910F01BF8D24806709BF80000012802D0304603F0BFF90EF0CA
:20236C00ABFACE4FCE4A0721334607F1140015F023FACC4DB84604F164074FF48042CA4919
:20238C00069728784A808946087004F158020792F4E0C04652616E646F6D5F73656564417F
:2023AC0075746F6D617469632829206661696C656400C04643727970746F206F70656E205C
:2023CC006661696C656400C008020020A9830000A13E0100E5800100C5A80000A1E2000040
:2023EC00F92401000405000019D200007F900100118D01006DC1000025B40000155601009D
:20240C00916C0100F14A01007125010083910100159F00008D0401006D670000B11F0100DF
:20242C00216A0100F57F0000D5EC00006D5F0000593000006D160100310E0000DDD4000006
:20244C005D890100A19D0000F1790100C82B0020E868410907D32E208DF8140005A811F0C4
:20246C0075F8AD480068410807D325208DF8140005A811F06BF8A8480068810807D3262073
:20248C008DF8140005A811F061F8A3480068C10807D327208DF8140005A811F057F89E48D7
:2024AC000068010907D329208DF8140005A811F04DF899480068C10909D38DF815602D20B9
:2024CC008DF8140005A811F041F893480068010A09D38DF8156030208DF8140005A811F0B5
:2024EC0035F88D480068410A09D38DF8156035208DF8140005A811F029F887480068C10A86
:20250C0009D38DF8156023208DF8140005A811F01DF881480068810A09D38DF81560362052
:20252C008DF8140005A811F011F87B480068C00B0FD3D9F8087067B1D7F80CA0384616F007
:20254C00A3FF384614F0B4FA5FEA0A07F4D1C9F80860676D6FB116F040FE616D66650391F0
:20256C001DF0E2F90398A06510F0F0FF079814F021F93046E86016F083FF287865490B7804
:20258C003BB1664F183F17F8181F884222D05B1EF9D1304625E0C046AD5401002DD1000071
:2025AC0019AA0000F170000003810100F9F10000E14C010085FF0100095801006D7D01007C
:2025CC008184010035910100A12C0020A32C002080190020F8684FF0FF3116F04DFF78698B
:2025EC000088E86016F044FF2878A98910F0AAFE16F0F3FD98F8011088F801608A0809D257
:20260C00C90812D31DF090F9304603F067F80EE09C1800201DF088F99BF80000012802D0BC
:20262C00012003F05BF816F0D8FD1DF07DF9E868800905D3069814F035FE0028039035D182
:20264C00E868000CFFF404AF14E0C046D1200020A52C00209D2C0020D02909D18178E97062
:20266C00C17869700179A97087686F61C168A96116F098FA287811F0E5FD002803903FF4AE
:20268C00E7AE0178D029E7DAA06510F05FFF079814F090F8EEE7C046A22C0020E41F0020EC
:2026AC004392010078070020D420002016F095FD94F86C10491E84F86C101DF035F90398B0
:2026CC0001788DF81410A0654778CFB1DC2F0DD0DD2F0BD0E42F09D0F32F07D0DE2F05D0F2
:2026EC00DF2F03D0E82F18BFDB2F0BD10BF07AFA9DF81400162805D103A814F05BF801E00A
:20270C0010F024FF9DF81400162893D0079814F051F88FE72813002084070020481300205D
:20272C002DE9FE4FDF4981460122A1F130000260DA480768002FFCD0D94AE34EC027DA480B
:20274C00DA4B17603268920808D2324652F8042C03F14104120C42F0F00222704FF0000A7B
:20276C008346C1F800A0DFF894C3DBF80810E24F0191880E43D2480E41D3802018744FF6C9
:20278C00D802A3F8512018703868C0F30464162CA8BF203C1E460F3E307800F01F00162859
:2027AC00A8BF2038844223D0624602F1980EE64ACEF800A0251A022D05DC15F1020FB8BFE1
:2027CC006FF0010500E002254019156800F01F05844245F4F855A6F866504FF0010515603D
:2027EC00E8D110682E4616601068CEF80050106838460068C0F30420162808DB06E0A7F150
:20280C00D0000068C0F30460162800DB203800EB2170401C162805DA10F10A0FB8BF6FF007
:20282C00090000E01520D74E00F01F0040F4F850A3F85900306880083ABFD348C0F800A03E
:20284C0041F040616246C80E8E0E80F0010000F00100106086F0010000F0010090600198BD
:20286C0010F074FF0146182014F0EEF8A7F13806D04C30683568A4F10408C0F3870105F078
:20288C00030041EA0021D8F80400C24D446840F2FF32534688B22C21009028464038A0476E
:2028AC00F06AC0F30D011C2014F0CEF8B749706A014000F07C400143142014F0C5F8316A50
:2028CC0001F47C000904090C0143102014F0BCF87D4AB06A1268C0F30351C0F30344520877
:2028EC0013D2DBF80020130511EB237103D41029A8BF0F2100E05146120414EB227403D4AC
:20290C00102CA8BF0F2400E0544644EA011400F47F4200F0FF01B9F1220F42EA044241EAFB
:20292C00020124BF00F0804001430C2014F08CF8974CB9F1220F32BF01202068C0F3007082
:20294C00B9F1220F4FEA400040F0200085F8090126BF2068C0F3407001208F4EB9F1200F99
:20296C0040F0100085F8090138BF514606D33168C80C00F44070C1F384510143282014F0F3
:20298C0063F8B9F1200F26BF3068C0F301505046B9F1220F4FEA400040F0600085F80C0172
:2029AC0026BF2068C0F3C0605046B9F1220F4FEAC00040F0800085F8010126BF2068C0F312
:2029CC0045505046B9F1200F4FEA800040F47C40A5F89C0138BF71490AD33068704A010320
:2029EC000A4000F00F0001F47C11114341EA0031082014F029F8CC3F4FF4800028606948FC
:202A0C00B96D40F21E226FF31F418A4216D939680B0E03F00F0213F00F0FC1F3034118BFE7
:202A2C00521E072905D006290EBF0721891C01F00F0142EA0112A0F108010A70DDF804C05F
:202A4C00CCF381477F1E02D07F1E35D030E021688A0C2DD24FF480422A60D0F802204B0AD6
:202A6C00C1F3033703F0800322F08F02134347EA0302C0F80220D0F80120C1F3032622F005
:202A8C000F0246EA0203C0F80130026801F0E70722F0E70247EA02010DE0C0469402224395
:202AAC0000600C4040100940AC3F0050156208404FF000412846016003480068C0F3C0074F
:202ACC000FB94020A86201E0B03F00504FF40070286420684027C0F3C14040F0300085F8D9
:202AEC00C800CCF3815088B3FFE7401E08D0401E24D0022123E0C04688130050000020434F
:202B0C00012014F02BFC06460420314611F042F8042014F023FC8642FAD12348066826F072
:202B2C007F4014F027FAD8F81400036807214FF06022300E98474FF480602860032104205D
:202B4C0011F028F809E0C0462C2009400420012111F020F8154814F00DFA203C206800F029
:202B6C003F0085F8CB0FD8F80030134ED96830680220884711480E4C076001212160BDE826
:202B8C00FE8FC0460000094094042A43FCFCFC008C13005040A00C409813005000803F403F
:202BAC000000C0FF0A600840A83F0050BD37860094046042A40100102C20094000600C40B7
:202BCC002DE9F04FDFF860B30F460446F80BADF1140D80F0F181DFF84C83B80F80F0A68163
:202BEC00B80880F09381DFF83883F80A80F0F580380B80F0CD80380907D2F80FC0F00E82AB
:202C0C0027F0804710F006FE08E216F0E6FA814614F042FF002800F0B580082016F086F9F0
:202C2C00002840F0AF80802016F080F9002840F0A98004A80DF072FC012803D10498002889
:202C4C0000F0A0805846C9300078002840F09A8000240125E0B215F0E9FE48B1867A3EB127
:202C6C00857290F9090005FA00F0C0B213F0C2FC641C032CEED344460320207504F1B40042
:202C8C0016F0A1FA48461CF04FFEC948002632460168066050F8081CC64940F8086C04F106
:202CAC00380016F0A2FA304615F09AF815F078FEA168401A010BE069C1F1FF3282422CBF5C
:202CCC0008444FF0FF30E06194F8200020B12069E169B1EBC02F25D915F0E2F8314600B10D
:202CEC002946081C1BD0D14840F6090101804680417B05F00F0221F00F010A434273017B49
:202D0C0006F00F0321F00F0143EA010202733146416015F0C7FF418811F4406FFBD084F832
:202D2C002050E66113F01EFAC14831460660022014F0A0FE022013F0D5FE11200CF024F8CA
:202D4C00207818B96068483016F057FAB948007810B90E200CF018F894F8210020B184F8F1
:202D6C002160052013F0BEFEB348A0612675B4F98C00B4F98E10884214BF022007200EF0E3
:202D8C0009FE02E048461CF0CFFD27F0080739E74446201D056813F011FC38B12846ED69A1
:202DAC006FF4807100224FF00073A847E06848B115F0F6FDE2686168801AC860000BC860AF
:202DCC000026E6609D4904F13800002216F00DFA27F400670220207514E716F0FEF90646BC
:202DEC0014F05AFE4446216F0028884600F08880002900F085809249042504F138000022F2
:202E0C00257516F0F2F930461CF08EFD04F1B40016F0D9F915F0C4FDE060D8F810006060E7
:202E2C00D8F81000416AC90803D3036A294600229847012011F0D8FD824815F033FF6568B2
:202E4C004FF0010985F81590606810F02FF8D5F808A040F60A02D01F564600F1010C00E0EC
:202E6C001E46736833B119888A4203D0884218BF8C45F5D100217160727B09F00F0322F0AF
:202E8C000F0213437373D8F80C201288904225D06046904222D02C8E0CB3696305F13002A5
:202EAC00518095F83C0001F00F0320F00F00034385F83C3095F83D0009F00F0420F00F0026
:202ECC0044EA000385F83D307260707B01F00F0420F00F0044EA0001717300E0E160504621
:202EEC0069460BF099F8684615F0CCFE15F080FD504615F0D7FE5146484614F0BBFD02E059
:202F0C0030461CF011FD27F4806787E008F0ECFD40467030006808B927F002077EE0C046F8
:202F2C0098210020A0210020A022002016F055F98146042014F012FAC0B1207DB0B14046A5
:202F4C00006898B12569064615F02AFD801B2061000B2061A84202D240194008206140F6F0
:202F6C00C41181422CBFB0F5967F216148461CF0DBFC13F023FB88B1E56920466FF48071B3
:202F8C0000224FF00073A847404668300068002808BF47F0020701D010F03CFC2046A46931
:202FAC0000214FF080630A46A04727F0005735E0141004400943010016F00FF922490E6864
:202FCC0046B306F1280106C90A234FF0E0450B40154008BF002B1DD106F1280191E8300023
:202FEC0006F1280393E8060006F12803AA43A14383E806001CF098FCB16869B1002D08BFF7
:20300C00002C09D030692246B6F93C10B4682B46A04701E01CF088FC27F480471FB158466E
:20302C00394616F0F2F805B0BDE8F08F2C2C002000000460820D0000C5D5000041F6000000
:20304C008D7E010001010E04202200202DE9F04FADF1840D1A9104461B920DF15F00CA494C
:20306C001C93082215F04EFA2046694613F082FC5FEA000B03D1002001461F90FAE102204D
:20308C000027A41C1D90D44E1F97204602A911F0A6FD5FEA000800F0E9811F990DF1410061
:2030AC0016220FF035F99DF809707F1E00F087807F1E40F0D381B8F10A0F40F3DA81A41CCC
:2030CC0006A80422214615F01DFA241D07A80222214615F017FA42F20B000DF11E0112F09E
:2030EC00DFF9BDF81E00BDF81C10884200F3C181A41C14F8010B14F8017B14F8015B8DF8EC
:20310C00410014F8011B8DF842700DF141028DF84350204605F098FDCF49097800280444B1
:20312C0000F0A78101290BF1020700F08D814FF400500DF1570112F0B3F90DF157000DF154
:20314C005F01082214F038FD40B11A990DF15700082214F031FD002840F0768142F20100C7
:20316C0006A906F017FE42F20B0007A906F012FE42F205000DF1410106F00CFE0DF14201DA
:20318C0042F2060006F006FE0DF1430142F2070006F000FE11A942F2090006F0FBFD9DF804
:2031AC00440028B1022840F04F8142F2030001E042F20D000DF1450106F0ECFD44E1B8F172
:2031CC00040F40F35681A41C14F8010B14F8017B14F8015B8DF8410014F8011B8DF84270D9
:2031EC000DF141028DF84350204605F02DFD0028044400F03E811A9808A905F0A7FF9DF833
:20320C003E00002840F002819DF84400002878D1B6F84E70002F00F0F780B6F85200874274
:20322C0007D0308B718B884201D109F029FCB06D20E0B76D4FF4005004A912F031F916F087
:20324C0013F94FF6FF791F9D1E90AA46B6F84E00A84240DCB06D4FF6FF7149450AD04FEACA
:20326C00490707EB89073818808812F0D1F8B06D3F1820D1B6F84E300746002B08BF1F9DC1
:20328C0016D01F9D1846BF1FBF1DFA782AB1401E05F10105F8D1BF1D0AE015F09EFFB6F8E2
:2032AC005210491CA6F852101CF03EFBB6F84E30AB4200F08E801A980AF044FEB880012098
:2032CC00F870FD788DF83E50B888ADF83F001F9B8DF82B309AE0B88812F0BEF80146082251
:2032EC0004A814F069FC40B1388801041E9815F070FF82453CBF8246A9466D1CBF1DADB290
:20330C00A4E7B6F84C70002F7ED0B6F85000874207D0308B718B884201D109F0B1FB706DBC
:20332C001FE0776D4FF4005004A912F0B9F816F09BF84FF6FF791F9D1E90AA46B6F84C0001
:20334C00A8424BDC706D4FF6FF71494509D009EB49173818B0F81F0012F05AF8706D3F1864
:20336C0021D1B6F84C300746002B08BF1F9D18D01F9D1846213F2137BA7F3AB1401E05F1F8
:20338C000105F8D121370CE06C01000015F025FFB6F85010491CA6F850101CF0C5FAB6F88E
:2033AC004C30AB4215D01F99384621220EF0B0FF1A980AF0C7FDA7F81F000123FF2039469D
:2033CC002122BB770546787208A8FD7215F09AF81CE061205BE0C046A0100020B7F81F0025
:2033EC0012F03AF80146082204A814F0E5FB38B179681E9815F0EDFE82453CBF8246A946A3
:20340C006D1C2137ADB299E7642040E09DF83E000DF14101162240F004008DF83E000AA848
:20342C0015F070F89DF844000BF1020748B19DF856500DF14500294611F0CFF82D1A8DF8BB
:20344C003D5008A80FF090FC1D9808EB0005AD1CA8B21D9006E0C0460A02002044440BF17F
:20346C000207A41C1D9887423FF70FAE1D98022803DC1F990A46672005E0ABEB00021F9885
:20348C000BF10201921C1B9B19801C990A8021B0BDE8F08F2DE9F04F5648554C00780021C3
:2034AC002422ADF13C0D08232070684615F0D8FF4FF0010A04F11805002128466A468DF86E
:2034CC0018A015F0C9FF656015F0C2FF294604F108020FF06BFF6070102014F02FFC011CAD
:2034EC000ED0D0200027087022464F7052788A70CF700F7126468F603078CF6011F0C4FDB5
:20350C0015F06BFEDFF800830D90002588F8035014F000F84022294608F53B700EF0F8FED9
:20352C00BA4C04F1080001882C2707FB01F00DF07FFFC8F8100308B915F017FEE07A218980
:20354C004143480000EBC1000DF072FFC8F8140308B915F00AFEE1882089484380000DF0BA
:20356C0067FFC8F8180308B915F0FFFD208980000DF05EFFC8F81C0308B915F0F6FD208978
:20358C0080B12A46D8F8101389180D75D8F8101389180D71D8F81013401E114402F12C028F
:2035AC008D81EFD1A188880000EB01100DF040FFC8F8200308B915F0D8FDA9464FF6FF7B1C
:2035CC00CDF8309040E0304613F06CFE0B900BA813F0F0F8C5E0304613F064FE0A900AA852
:2035EC0013F0E8F8B8E009A813F0E4F8A2E0C0468C1E00203C0C0020A37AD8F820734846EC
:20360C00860006EB0016D8000DF012FFF119F319C860DF680FB915F0A8FDA77A87B128466D
:20362C00D8F820138919CB68C200AC4642F803C0C9687F1E00F101001144A1F804B0EFD1D3
:20364C0009F101001FFA80F9A0884845D4DC8248FF210822C01D0EF05BFE7F48FF21082213
:20366C0088F8FB1210300EF053FE032688F80C632789A8F80EB3B7B104232846D8F81C13FD
:20368C00820002F801A0D8F81C1389184B70D8F81C1389188E70D8F81C137F1E00F101007A
:2036AC001144CB70EAD16C48042205210227343000F804AF427081707F1E80F803A0F7D158
:2036CC006548A78880F83C6098F880634FB12846D8F820137F1E014400F11400A1F802B0D8
:2036EC00F6D1022088F8F0021EB1D8F8840300B1804715F05DFC98F92E0415F080FA13F022
:20370C001FFF15F0CFF914F0B1FF14F0A3FF404E072456F8040B00B18047641EF9D114F07A
:20372C00EDFF444604F15400016809B113F042F884F85E50207810F085FD002809907FF4E6
:20374C0052AF34480078012802D0284601F0C6FF314804F160060570206E00287FF43BAFED
:20376C00361D606E00287FF42EAF25662B48C4F8900165662A4FC4F8947184F86A50294EA7
:20378C00C4F8986184F86B50274BC4F89C31A570264AC4F8A02184F86C502549C4F8A4111D
:2037AC002849C4F8C810234FC4F8A871264FC4F8CC70214EC4F8AC61244EC4F8D0601F4B44
:2037CC00C4F8B031224BC4F8D4301D4AC4F8B421204A0D98C4F8D8201CF0A6F804F2154162
:2037EC00522006F0B5FD94F82F0411F00BFD15F0DFFB1A49E220103115F0D5FC1748406879
:20380C000FB0BDE8F08FC046080200208019002018030020D1200020A02C00205F26010012
:20382C007D91010065780100018E0000F1DB0000ED7E0100296C010075B60000BDA40000A6
:20384C008D780100F7160100B1AC0000FD2F01002D080100B1390100F40400208C1E0020BB
:20386C002DE9F04FD04D286A416EADF11C0D02A888474FF00008D64ECDF80880B0688DF8F4
:20388C000C80002837D113F05DFBC8B113F05AFB012815D013F056FB052811D013F052FB74
:2038AC000C280DD013F04EFB0D2809D013F04AFB0B2805D013F046FB0E2801D015F055FCA0
:2038CC0013F040FB707000280CBF40460120B070286A00F1200118B915F047FC296A203163
:2038EC00096806F1180088474FF4FA703085C34FF76206243463DFF80893EB6999F83F2425
:20390C004FF0010A4146080100EB4110C018877F2FB9447F491CA242C9B2F4D102E0417FD1
:20392C00914204D1834202D012F0F0FEEB69DFF8D4B2686A17C88BE8170096F901000128A7
:20394C0005D00D2803D00E2818BF404600D105208BF8000099F86D145869AB4C50F821003F
:20396C00C4F89C0014F0B6FC632005A912F082F999F83F0412F0AEFE074694F88E000AF09C
:20398C00070120F00700014384F88E1012F0BCFC04282BD012F0B8FC032814D094F89000DC
:2039AC0040F00F0084F8900094F8970008F00F0120F00F00014384F89710B87B052814BFCC
:2039CC002420292019E094F8900040F00F0084F89000292384F8943094F8970008F00F0137
:2039EC0020F00F00014384F8971008E094F8900040F00F0084F89000212084F8940094F809
:203A0C00950068F3871084F8950012F07DFC042820D0BB7A93B99DF8141094F89500491EA9
:203A2C0020F03F0001F03F01014384F8951094F8960020F03F0040F0180019E094F89500C2
:203A4C009DF8141020F03F0001F03F01014384F8951007E094F8950020F03F0040F0020033
:203A6C0084F8950094F8960020F03F0040F0200084F89600B989B87BB4F88E200A23401DFD
:203A8C00484390FBF3F161F3CF02A4F88E20B88994F890201923800390FBF3F102F00F0005
:203AAC00D4F890200F23484390FBF3F161F31C22C4F89020EA6994F89800117F20F0070036
:203ACC0001F00701014384F8981094F89810107FC01060F3C30184F8981099F92E0411F0E6
:203AEC006BFBB0F1FF3F05D0010828BF4FF6FF70A4F89A00388979683B68401E414303EBB1
:203B0C005100EB694FF47A72B0FBF2F0A4F8A00098690078A4F882800AF00F01C4F884801B
:203B2C0094F88D3084F8A40023F00F00014384F88D1015F037FAC8B9B889344999F83F74D8
:203B4C00B2FBF0F0C0B208703149022FB2FBF0F0887006D012F0D8FB032807D105225C2061
:203B6C0001E00222A8202B4B1A704870B3682F6A83B3404612F0BEF9F07899F83F14884275
:203B8C0014D1317999F86D242F6AB06891420FD1022142468DE806003F6D8034434602AA49
:203BAC002146B847EC6020E0C81B00202F6AB0687968884718482B6A80F800A01F681748F0
:203BCC0080345946224606F11803B8470AE0C046C01E00208034224610483C6806F11803F5
:203BEC005946A047B060686AA86299F83F0499F86D74F07007B03771BDE8F08F331F0100CB
:203C0C0008020020682C0020DC170020E41F0020742100200C200020D2200020482A0020DF
:203C2C002DE9F04FB94C0546A07AADF1340DC0000DF0FEFB0028089000F0A88115F0CDFA7F
:203C4C000B900AA9822004F06FFDBDF82800002834D14FF000084FF6FF76ADF8288024E0AC
:203C6C00ADF81460BDF82800ADF81660FF210822ADF8100006A80EF04BFBA77A57B1434684
:203C8C001946089AC8007F1E01F10101135010448680F6D18DF82480D42004A902F098FEE8
:203CAC00BDF82800401CADF82800A088BDF828108842D5DC82200AA902F08AFEC34F002061
:203CCC00A0464FF6FF79A2463988ADF8280006E0BE4FBDF828003988401CADF82800BDF850
:203CEC002800814240F34281B94800784FF0000B01265C4608E0BAF80600641CA4B23CE0B9
:203D0C00B348641CA4B20078A04208DC002EDFD1BBF1000F2ED1E87F0028D9D02AE0BDF8F9
:203D2C0028008DF802406946ADF80000D02004F0FBFC0028E4D19DF80C30012B08D19DF811
:203D4C000B0028B90DF1030014F0F0FC0028BFD12F7D002F0CBF052209225E469F42CFD1A5
:203D6C000DF1030005F1150114F04AF80028C7D04FF0010BB8F806000024A04265DDBDF827
:203D8C002800ADF802406946ADF80000D12004F0CBFC0028AFD1BDF804008145ABD0ADF8C1
:203DAC00100004A9D42004F0BFFC002840F0038106A8291D082214F023F800289BD028883B
:203DCC006F88ADF81400BBF1000FADF816702AD0287B98F80A708DF82400381C08BF0020B6
:203DEC000FD00899024600208B88994509D0BDF828609E4205D0521E01F1080100F10100B6
:203E0C00F2D1874207DC0B981BF08EFD0898002800F0D880D4E008992A69C000BDF82870E9
:203E2C000A5040188780D42004A902F0D1FDBBF1000F0AD0A87F9DF80610884205D08DF8D1
:203E4C0006006946D12002F0C3FDB8F80600A0427FF43EAFB8F80400DFF878A1002499E0C5
:203E6C0006AB184614F062FC50B9291D1846082213F0C6FF002808BFB8F8040000F088808B
:203E8C006F882888ADF816702E7BADF8140098F80A708DF824603B1C08BF00200FD0089911
:203EAC001A4600208B88994509D0BDF828609E4205D0521E01F1080100F10100F2D18742D1
:203ECC0006DC0B981BF030FD089800285ED05BE0089A2E1DBBF1000F0CBF00212969C00002
:203EEC0011501218BDF8280031469080082206A814F008FB9AF8800330B1DAF8D0231AB162
:203F0C00BDF8101030469047002603E080190020761CB6B2B8F80600B04221DDBDF8280034
:203F2C00ADF802606946ADF80000D12004F0FCFBE82803D0BDF804008145E9D1BDF810005D
:203F4C000023ADF80400AF7F8DF8073004A98DF80670D42002F03CFDD120694602F038FD11
:203F6C00B8F80400B04213DDA04208D00B981BF0DBFC089808B112F09BFD002023E00B98A7
:203F8C001BF0D2FC089808B112F092FD1A201AE0641CA4B2A042E7DDADF81040D42004A90C
:203FAC0004F0C2FB00283FF45BAF0B981BF0BCFC089838B104E00B981BF0B6FC089808B153
:203FCC0012F076FD19200DB0BDE8F08F881900208B190020080200202DE9F04F1E46174681
:203FEC000D468246ADF1540D15F03EFA5C4C3C2204F110010860002102A80EF089F929680E
:20400C0002A801606968416029890181287A032804D0022003258DF8140002E003258DF8D0
:20402C001450207818B104F1340015F031F8A08E6178ADF812001F29B4BF481C0020BAF1B0
:20404C00050F607041F080014FF0000011900BD0BAF1040F05D0BAF1020F08BF41F060015B
:20406C0004E041F0200101E041F040018DF81510ADF8307001200B96BE498DF816000A68E6
:20408C000DAB1A60496859608DF83D50BAF1050F8DF83E504FF005078DF83C7012D0B4F88A
:2040AC005E00BAF1040F08D0BAF1020F0FD1B4F86400401CA4F8640009E0401C80B2A4F8E5
:2040CC005E0004E0B4F85800401CA4F858009DF81C00012807D19DF91F0011F06DF8B0F1D0
:2040EC00FF3F00F03881A4489DF817700178A3481FB990F86B208A4207DB012F40F02B81BC
:20410C0090F86A208A4280F226818046BDF830009DF83D6012909DF83C70DDF84490BDF87E
:20412C0024500A9813965FEA000B1BD098F88013002900F01081D8F89813002900F00B8188
:20414C0000F0FF008847D8F8981306B20BF47F008847361830B2001D00B2C83086B202E004
:20416C00B4180020C8260DB12D1DADB298F82404012809D147B1824813993F1897F804904F
:20418C00405C8019401D86B21298401980194844801C80B213F0D2FD071C00F0DC80129868
:2041AC007319002D4844DDF84490388103EB070078600EBF4846B819801C78224946C7F8CF
:2041CC00A40007F10C000EF0A3F81298FF21102280194019A7F84C0007F13C000EF098F8F7
:2041EC0007F12C000F2110220EF092F887F8009087F801907868BDF830200B9914F082F97E
:20420C0007F184000DA90B2214F07CF907F1900002A914F007F9BDF81200A7F89A009DF8EE
:20422C00140087F89C009DF815000DF1160687F89D00326869460A60706848609DF800108B
:20424C004846012908BF01209DF80110012908BF40F004009DF80210012908BF40F0080017
:20426C009DF80310012908BF40F010009DF80410012908BF40F020009DF80510012908BFD4
:20428C0040F040009DF80610012908BF40F080009DF80710012908BF40F48070A7F89E0058
:2042AC009DF81E0087F8A0009DF81F0087F8A1009DF8400087F86C00BDF82410A7F8A8104C
:2042CC0029B10A46D7F8A400089914F01BF99DF8260087F8AA000A98C7F8AC00B7F8A80034
:2042EC00C8B1D7F8A400B0B17868401E7860F82101707868401E786080F80090B7F8A81040
:20430C00B7F8A8607868401A786038898019801C38817868B865B7F89E00410A13D39DF809
:20432C003F10052917DB00F0040100F00100084311D108F1900420460DF0A8FF9DF83F1074
:20434C00204613F00DFE98F80000394610F09CFE012011900AE0BAF1050F07D1E06A12F0A5
:20436C0099FEB4F85800401CA4F85800119815B0BDE8F08F45080000801900200802002084
:20438C001C0400002DE9F04F064692F808B0307D09AF8846ADF1240D04933528039205D0AE
:2043AC00114606F170000A2214F0ACF8DFF8C8C238F07F0506BF604600884FF6FF70059016
:2043CC00F08A800934BF002008203076F08AC00834BF102080207076F08A400903D26046C4
:2043EC000E30007800E00020B076F08A41082CBF20240024000928BF44F010047568002189
:20440C0008F07F08307D06916D1E02280EDB0C2808DC0C2803D1022044F40854069044F08F
:20442C00030404E00D280CBF02200120044396F88C0008B144F00804E110220900D328B120
:20444C00DFF8C09299F8243413B908B1DF204DE149086ED306F12401DFF8ACA296F88D504E
:20446C00079100EB0A011AF805300A7999183389491DCAB29918A54B1A8808908A42C0F230
:20448C00378100284CD0049A039906F184000AF003F90799002808603FD0806AB0F1FF3F61
:2044AC0039D070680023401E8DB196F88E10524600F80119515D491EC9B241B18A1992F8CB
:2044CC008320491EC9B2002900F80129F6D1079970660968896AB162090E00F8011996F895
:2044EC002A1000F8011996F82910089A00F8011996F8281005F0030500F8011902F007011A
:20450C0041EAC501017071683589091ACAB27060A918318105E0DB2700E0F3277770E8E024
:20452C000023F08A7370C00828BF44F0100475686D1E336DA3B9B36D93B999F83D1401291C
:20454C0003D13089B0F5EE7F06DA200904D202290AD144F4005401E044F48054012002E04F
:20456C0044F408540220069099F8020001280CD099F8800348B196F86B00042805D1022021
:20458C0024F48054069044F4005444EA8834B8F1020FA4B20AD0B8F1030F10D1ED1F09F587
:2045AC008661284614F0F9FD6D1E08E0B9F81604001205F8010999F8160405F801090698F9
:2045CC0002280CD0B8F1000F15D0BBF1000F0CD004990598814208D144F040040BE0BBF1B0
:2045EC00000F08D1B8F1000F05D00599081205F8010905F8011944EA8B24BBF1020FA4B274
:20460C0009D0BBF1030F0ED10399ED1F284614F0C4FD6D1E07E003990888001205F8010986
:20462C00087805F80109BBF1000F05D00498011205F8011905F801093878F8B93448017834
:20464C00307D0D2814D068B9306D28B999F80004411C89F800140AE099F82504411C89F8E0
:20466C00251404E099F80E04411C89F80E14014605F8011904E0C0461A06002044F48074BA
:20468C00201205F801092C7070683789401BC1B2756078183081200927D3B06D00B130623A
:2046AC0099F8800310B1307D0D281ED1726A12F1150002D114F059FD726A916A481C9062FA
:2046CC00306A3289B162471B0092D21B019090B20290706A96F88C202B4615300AF0A6F8BE
:2046EC0000281CBF7070071C07D10020707005E0E5277770F32013F0AFFEF8B209B0BDE82D
:20470C00F08FC046080200201C0400008E190020CC2B0020B0B50446BC480768ADF1480DCB
:20472C00002F00F0AC812078401E122800F2A781DFE810F06E0157013D01280120010901B7
:20474C00F600E800C800B700920067005D004C00A501340026001C0013007B6C002B00F01D
:20476C008E810020A21C0146984788E1F86B002800F08581684621460CF0A0FEF96B7CE1C0
:20478C00386C002800F07B816846002101220DF0BFFD60788DF80000396C6EE1F86A0028CF
:2047AC0000F06D81684600210E220DF0B1FDA11C684613F013FFA57BA1890022ADF80A10BA
:2047CC0005B101228DF80C20F96A57E1B86B002800F055816846002102220DF099FDA578F4
:2047EC008DF8015060788DF80000B96B45E1786B002800F04481684621460CF05FFE796B1E
:20480C003BE1386B08B36846002114220DF080FDA5788DF80150A3680193A289ADF8082009
:20482C00A17B8DF80A1060788DF80000E57B8DF80B50237C8DF80C3094F911208DF80D2044
:20484C0061690491396B684688476068002800F0168114F0A7F912E1B86A002800F00F81F4
:20486C006846002124220DF053FD6078A11C8DF800000DF1020013F0B1FE04F10C0103A851
:20488C0013F0ACFE257EE08A04F119018DF818500B22ADF816000DF119000BF0DBFEB96A60
:2048AC00EBE0786A002800F0EA806846002102220DF02EFDA5788DF8015060788DF8000052
:2048CC00796ADAE0386A002800F0D9806846002112220DF01DFD658862796078ADF802506B
:2048EC0023798DF80520E11D8DF80000A5798DF804300B220DF107008DF806500BF0AAFE5C
:20490C00396ABAE0F869002800F0B9806846002101220DF0FDFC60788DF80000F969ACE069
:20492C00B86910B1204610F007F9A07820B9A069002800F0A48003E0A069002800F09F80CA
:20494C0012F0B6F89BE07869002800F098806846002113220DF0DCFC6D46A01C01684068B6
:20496C0029600B22686004F10A0102A80BF072FE796982E03869002800F0818020460BF039
:20498C0065F87CE0F868002879D0684600210E220DF0BEFC6078A11C8DF800000DF10200B1
:2049AC0013F01CFEA089ADF80C00F96865E0B868002864D06846002114220DF0A9FCA01C6F
:2049CC0001686D46296040686860A07A0B2204F10B018DF808000DF109000BF03BFEB96885
:2049EC004BE0786800284AD06846002110220DF08FFC60786588211D8DF800000B22ADF87B
:204A0C00025001A80BF026FE796836E0981E00203868A0B36846002119220DF079FCA01C78
:204A2C0001686D46296040686860A07A410824BF01218DF80810810824BF01218DF8091024
:204A4C00C10824BF01218DF80A10010924BF01218DF80B10C10924BF01218DF80C1030F09E
:204A6C007F001CBF01208DF80D000B220DF10E0004F10B010BF0EEFD39686846884712B01D
:204A8C00B0BD70472DE9F04F09AFADF13C0D08900A92388809911E46ADF81800101C08BF50
:204AAC00002000F07581017800274FF0010B401C4FF0FF39B846DA460A9061E1252940F0AE
:204ACC0056810178401C0A902D2918BFADF8068004D10178ADF806B0401C0A9030291CBF59
:204AEC004246434604D10178401C5A465B460A902A29CDF800804D4617D1049330680A9B2D
:204B0C00CDF80890C01C20F00300001D306050F8044C1978002C009403F101000A9018D52B
:204B2C00ADF806A06442009413E044460AE0600000EBC4004018A0F130040A9801780094A2
:204B4C00401C0A90302901DB3A29F0DBCDF8089004932E2929D10178401C2A290A9011D107
:204B6C003168CDF80880C91C21F00301091D316051F8045C002D48BF454601782B46401CE4
:204B8C000A9011E0454643460AE0680000EBC5004018A0F130050A9801782B46401C0A90C8
:204BAC00302901DB3A29F0DB02930AB1224604926C2904D04C2918BFADF8048004D101780C
:204BCC00ADF804A0401C0A900BA8CDF80C800FAB07906429059300F0828069297FD0BDF888
:204BEC0018C075296DD0782969D06F2965D070294ED063293ED0732922D00A98401E0A90D6
:204C0C00099801281AD966490C68B5F1FF3F03D0A84288BF6D1C05D86FF00041814294BFA4
:204C2C000D1C099D029508A80AA932466B46A04709993F18091A0398099165E0454617E077
:204C4C003068C01C20F00300001D306050F8040CBCF1010F014608B94FA00146079113F026
:204C6C0067FF0390B5F1FF3F4FD0A8424DD9039528464AE03068C01C20F00300001D3060B8
:204C8C0010F8040C8DF82C005D46039558463CE0082035680490E81C20F00300001D30602D
:204CAC0050F8041C082210230FA80EF025F8401E079040210170079823E0082302E01023A8
:204CCC0000E00A233068C01C20F00300001D306050F8041CAA42BCBF2A1C04920DE0306857
:204CEC00C01C20F00300001D306050F8041CAA42BCBF2A1C04926FF009030FA80DF0FCFF47
:204D0C0007900599081A0390009C241ABDF8065000945DB906E008A8202109AA12F0D3FCB3
:204D2C007F1C009C641E0094F5D50398401EB0F1FF3F03900FD1BDF8060001281CD100989C
:204D4C00401E009018D408A8202109AA12F0BBFC00987F1CF4E70798017809AA08A812F085
:204D6C00B2FC0798401C079003987F1CDEE708A809AA12F0A8FC7F1C0A980178401C0A9037
:204D8C0000297FF49BAE089808B14146017038460FB0BDE8F08FC046286E756C6C2900C09E
:204DAC00240E00002DE9F04FAF4ABA4C02F12001096804F11000243201601268011D0A601E
:204DCC00AA49ADF13C0D0546082212F0F5FE28B9A7490A682846026049684160A548A64942
:204DEC00C0F88C10A64EC0F898600025C0F89450A24FC0F89070A34BC0F89C30A24AC0F82F
:204E0C00A020A846C0F8A480D0F88C10C0F8A88000F18C0609B1404688479C4D0C22CDF84A
:204E2C002080414605F128000DF072FA41F27073974F2B63688DEF6240F019006885FEF7BD
:204E4C0029FBA86009F0B8FD05F18400E060AF68914C41466662F520A76013F0E9FF8F4F8A
:204E6C000D200E26787007F10C01BE7007F118000BF086F8B860787813F09CFD00280CBF8A
:204E8C0008264646B87813F095FD08B946F010068349B86814F037F88249C82207F124008A
:204EAC0010F08EFB8048AB467860102E10D1606A70B1C26862B1FF208DF810004FF6FF7716
:204ECC00ADF8127004AEADF8147096E803009047764D05F1140005F108010BF051F8686094
:204EEC00404614F04DF84FF0020A4746AE1E814606F8028F384686F801A014F0B0F801464D
:204F0C0068684A46C9B211F03DFB7F1C022FEFDB674905F120004FF4FA7210F051FB654D68
:204F2C0005F11000291D0BF02BF82860606A002846D00769DFF880916FB1009449460CA81C
:204F4C000A68898802600CAE818096E8030001234246B847606A002832D0C26852B14946C9
:204F6C000CA80B68898803600CAF818097E803009047606A20B3076917B306208DF80800EB
:204F8C00ADF80A000AAEADF80C8002AD009695E80300534642464546ADF82850B847666A10
:204FAC00BDF828007769A08057B1BDF8280002AE401CADF8280096E8030052460AABB8477D
:204FCC00E820012113F034FFE720092113F030FF606A062628B307691FB38DF818600425C9
:204FEC00ADF81A5008A8ADF81C8006AB009093E8030042462B46B84718B9089D1935A8463C
:20500C000FE08DF818604046676AADF81A5006AE09907C69ADF81C8096E803002A4609AB1A
:20502C00A047CDF8208040460DF0ACF9E0200C2113F0FEFE4F20032113F0FAFE5720052199
:20504C0013F0F6FE4E20042113F0F2FE5920032113F0EEFE13F0DCF80BF10200012113F041
:20506C001FFC00F02BF8FCE7A8FF0100B80D0000F01200503C0C0020415D0100AD6101003E
:20508C00FD060100B16401000DE50000B418002020BF02008C1E0020D8160020781D00209E
:2050AC0039660100D185010051870100081E0020E10C010070200020E00D00002DE9F041FC
:2050CC00BF4CC04DDFF800836088ADF1400D41087ED308A804A90EF0EDFD012869D14046B7
:2050EC0024300068D8B10769CFB1062002268DF808000022ADF80A600BABADF80C2002AE2C
:20510C00009396E803000C23B84740B9BDF82C0060850C9FE7620D98206313F023FC02261C
:20512C0005AFBDF81210BDF8100084F824603A46A1830FF0DBFB30460EF070FABDF82000E7
:20514C009DF81C60A5F8400009A985F8426005F1500013F07FFFBDF8220005F14606394625
:20516C00A5F84E00304613F075FFBDF81200B5F84010A5F84400502013F053FEB5F84E10D7
:20518C00532013F04EFE4A20314614F00CF895F84210E12013F04CFEB5F844104B2013F0BC
:2051AC0040FE05F10A00102113F07AFB0120207008E014F059F9E06001200EF02FFA002065
:2051CC0013F0C0FCA01C012113F054FB20464088C10807D301F02EFDA01C042113F04AFBBE
:2051EC002046408880080DD3E06A11F053FF12F0BBFA00B2A082E08201F01CFDA01C02219A
:20520C0013F038FB6F89780805D305F10A00012113F030FB6F89B80805D305F10A000221F9
:20522C0013F028FB6F89780915D342200EA910F021FD95F85A0005F10A06032818BF042889
:20524C0002D1286E11F00EFF11F05CFB3046102113F010FB6F89B80907D30DF01DFB05F120
:20526C000A00202113F006FB6F89F80907D30AF091FA05F10A00402113F0FCFA6F89780AA7
:20528C0013D395F85D0013F05DFC95F85D0005F10A06032803D15220012113F0BBFD304622
:2052AC004FF4807113F0E6FA6F8938094ED395F85C0005F10A0600283CD0401E34D0401E8E
:2052CC0002D0401E2ED03CE095F85810472013F0AFFD95F85910542013F0AAFDB5F8441058
:2052EC004B2013F09EFDB5F84010502013F099FD09278DF8117001238DF812308DF81330AA
:20530C0095F842008DF8100004A813F0CDFE95F85A00012815D1E87898B13046202113F04A
:20532C00BFFA0EE003200AE05220012113F072FD022004E05220012113F06CFD01200EF082
:20534C0009FE3046082113F095FA6F89454617B1A86814F079F8E9886878490819D3A9788A
:20536C0002094FF0000601D301290BD040090BD3012909D0A01C012113F092FAA86814F04D
:20538C0063F801E010F05CFA6E70A81D012113F071FA608880B90D4C60684FF0FF3114F087
:2053AC006BF848B160780EF04DFF041C04D0FFF7B1F9204613F0F6FB10B0BDE8F081C04699
:2053CC00B4180020301A0020D81600208C1E0020BA482DE9F84F0025B94CB749056094F819
:2053EC00E200002800F06381012800F02F81B54E02283CD0032840F05A8151F8250CD4F845
:20540C00B8100029A0F5C060C4F8D400B8BF49420028B8BF4042814226DA4FF08057D7F87F
:20542C00A4014568B4F8BC0030214FF47F42082300903046A847D7F8A4014568B4F8C000A4
:20544C0004214FF4F802122300903046A847D7F8A401B4F8D070456820214FF440620A2354
:20546C0030460097A847012584F8D8501AE151F8258C13F030FD2F4600B901273946924F7F
:20548C0038680028FCD0B146012609F10409D9F82CA03E6009B113F024FDCAF30720C4F88E
:2054AC00BC0013F018FDAA4600B9B2463B68002BFCD0D9F800B0BAF1000F3E6001D013F024
:2054CC0010FDCBF38440C4F8C00013F004FDAA4600B9B2463B68002BFCD0D9F81C90BAF14E
:2054EC00000F3E6001D013F0FCFCC9F38120C4F8D000B8F5C061C4F8B81000F09C8094F854
:20550C00D80068B9C4F8D410D4F8C000C4F8C800D4F8BC70C4F8C470D4F8D030C4F8CC306A
:20552C00D4F8D400D4F8BC30002854BF02226FF0010204F1C8010F6800EB400080184210FC
:20554C0000EB927207EBA2000860D4F8C810C4F8C43000291CDD1E293CDDD4F8CC0030B9FD
:20556C003429B4BF15391E21C4F8C81025E02A29BABFD4F8C8000B381E20C4F8C800D4F8F8
:20558C00C4003F28B4BF401C3F20C4F8C4001FE0D4F8CC00032812D011F10B0FC6BFD4F815
:2055AC00C8000B30301CC4F8C800D4F8C4000028C4BF401E051CC4F8C450032508E011F170
:2055CC00150FC6BFD4F8C8001530301CC4F8C800C4F8CC504FF08057D7F8A401B4F8C4306B
:2055EC0030214FF47F424568364800930823A847D7F8A40104214FF400321123456831480A
:20560C000096A847B4F8C860D7F8A40104214FF4F802122345682B480096A847D7F8A40101
:20562C0020214FF440620A23B4F8CC60456825480096A84701E084F8D85040F2FF50404509
:20564C0002D8801C40452DD208202EE051F8251C1E4F4BF2F5204843060A3868C0F3814016
:20566C0001280AD112F080F810F05EFD13F03FFC3111C010484306EBE03694F8E50030B909
:20568C001348006820F07F403618760801E084F8E5501048310C0660012741600E4D876008
:2056AC00287808B90B2000E0052084F8E40003F0B1FFBDE8F88FC0462D400C402C500C4097
:2056CC00C415002000A00C4000800C40B43F0050102009403C600C40A10C00002DE9F04F67
:2056EC000546ADF11C0D13F078FDAA4FAA4C012D069000F0EA8012F0DDFF002800F0E180B0
:20570C009D480078002840F0DC809C480078002840F0D7809A480078002840F0D28099487C
:20572C000078002840F0CD8097480078002840F0C88096480078002840F0C3809448007804
:20574C00002840F0BE80384621460F78006A002F00F13C0040F0B580904C00682578804768
:20576C006168DFF830B2DFF83C82AF00401AB0FBF7F6E068A1680027BA46524681464E45FB
:20578C0072EB0A0201DA814206D83A4650468E42904145DA084600E03A460146891B4FEA70
:2057AC00E573BA41084611462A4612F0D7FF4FF47A72002306460F460DF067FA0BF096FFBC
:2057CC00534600F6FC024FF00001B61A9F417042B94122DA72480268394630460DF055FA33
:2057EC000F4606464FF000017042B94115DA12F01DF90546206913F02EFD10B1206912F0BB
:20580C001FFC284613F020F82069314613F018FE206913F011FE002000E0012044462070E9
:20582C004446207800284CD1002738460DF0A6F800B10127C146384600284FF000073ED1DA
:20584C005548007800283AD1DBF82000564C436CA068022102AA98479DF8080078B3534D92
:20586C00DBF82020A06895F900103E4611F1020F18BF01264FF0010836B1926B95F9001004
:20588C009047DBF82020A068494E96F9001011F1020F03D0926B96F9001090476FF001001B
:2058AC0030703D4B2870384683F8008013F032FADBF82000C169A06888478BF8017089F80B
:2058CC00007006981AF030F853E001200DF056F806981AF029F82078012839D1012013F025
:2058EC0019FA12F033F960BB13F077FC002502268146DFF8C080386AA8F80250416E2670C6
:20590C0002A888470295386A8DF80C602D4A2A4BD0F850C0294630468DE8030010684146B8
:20592C0002AAE047002801D513F01FFC2349464691F90000FE60401C0870484619F0F4FF2E
:20594C0006E02078012803D10020207012F0BEFE12F0FCF868B92078194D022803D128789F
:20596C0008B113F002FC2878012802D020780228FCD007B0BDE8F08FA12C0020A32C002081
:20598C00A52C0020A22C0020C6200020C7200020C8200020C81B0020D2200020E41F0020CF
:2059AC00100E0000A42C0020C01E0020C4200020C5200020DC170020B92B0100CE200020C0
:2059CC00D1200020C81E00202DE9F04FA54E814606F120000068416EADF12C0D03A8884716
:2059EC00AD4CE76817B913F0C0FBE7684FF00008388979689A4BCDF81C80C5000978187871
:205A0C001035890906D340F6485191FBF0F16D1805F5AF754543387D35280CBF47464FF4B6
:205A2C00FA570DF12601E82010F024F99DF82600032808BF44F62067E068007D07EB850510
:205A4C00352803D1D4F8E403804745430220B3468DF82000864FDBF82000069507F10803E1
:205A6C00826E186806A9904701207F497F4D087029788BF80080012901D0FFF72FFEE068ED
:205A8C000589466812F04CFA3088000935D394F88073E1688FB34B6A4F6E986AB0F1FF3F50
:205AAC0025D027B3421C9A628862030E07F80139E06890F82A0007F80109E06890F8290081
:205ACC0007F80109E06890F828003870E268106A00950190801B281A80B20290916A506AD1
:205AEC0092F88C203346153008F0A0FE00E0DB20D4F8C473002840F0A680294630460BF0D4
:205B0C00C1FE642009A910F0B5F85A4894F88073007837B994F82F0409F020FC012805D07C
:205B2C008DE009F01BFC012840F08980DFF848A1A81C87B20DF125010AF170000780E9209E
:205B4C0010F098F89DF82500012805D13D46C5F3022040F0180005E02D1DADB2C5F30220E3
:205B6C0040F0080006F8010D06F8015D55469DF82400A5F862800028EE670CBF3F4840484F
:205B8C00CDF80C8002238DF8103005F12806A6F80280C5F8B80005F16007B86195F83500CD
:205BAC00A5F8468020F00F0040F0030085F8350013F013FBDFF8CCA00A90B9F1010F1DD0DD
:205BCC00B9F1040F1AD0B9F1000F14D0B9F1050F0ED0B9F1030F08D194F83F0410F07AFDFE
:205BEC00C07B022818BF3E1C0AE005F1600607E0DFF894A004E005F1440601E005F12806A2
:205C0C00DBF820001A4B046D02278DE880019868314603AA5346A0471C49002808800BD4F8
:205C2C001B4991F900006035401C08700A98CBF80C5019F079FE0FE00A9819F075FE1A2079
:205C4C000CF0B2F808E0002F08BFE420F8D0114880F80080E420B8470BB0BDE8F08FC046AF
:205C6C00E41F0020C81B0020C7200020D1200020C01E002077210020DC1700204E90555589
:205C8C000E7A555519A60000CDE10000F41E0020CE200020A52C0020080200202DE9F04FA9
:205CAC00AC4C07460020ADF13C0DDFF8A482ADF80C0004F10C0000688946017D252900F0EA
:205CCC000281703005A903F041FA002818BFC0B240F03B8101A804A90DF07CF810F014FB86
:205CEC00042814BF41F2081543F2C82504A901A80DF070F898F82B2201993B684FF47A7A1B
:205D0C00504650430AFB1100C01A8542C0F2D880D8F80422521A0AFB02F1C91A8D4200F38E
:205D2C00CF808542A34609DD002807DD95FBFAF04FF4916100B201FB003038609DF81F008D
:205D4C00002857D042F204000DF136010FF0A8FB13F08AFB0699441A42F206000DF13501E6
:205D6C000FF09EFB9DF835009DF81D10FF2804BF0A208DF83500FF2908BF0A219DF83560E1
:205D8C009DF81C507448B4FBF0F2701884B25646A81054437043A04298BF041C41F20810A9
:205DAC00241805A811F00BFE9DF81C103D68B0FBF1F24A43821A714392B272438B1A891AD2
:205DCC005B1B491B8C4201D9002908D56142994212D2002B10D5B4FBF6F109B203E0610028
:205DEC00B1FBF6F189B23A684FF4916303FB01253D6001E03D68002006460DF1120102A882
:205E0C000CF0E8FF0298D8F804120024B5FBFAF280180290814203D998F82B32834202D9FD
:205E2C0098F898712FBB9DF81C00B6180004B04298BF361A9DF81F00002808BF9DF820005F
:205E4C0024D09DF81C00B6FBF0F085B2BDF833000FF002FB9DF83120014628460FF087FCC8
:205E6C00054611F099FD024608A928460FF061FA0CE0814204D8BDF81200401CADF812000E
:205E8C00BDF8120098F89B110CF040FD89F8000088F8F501DBF80C00007D052811D19BF8C5
:205EAC00150470B999F8000003A9ADF80C0042F20C0003F06FFFBDF80C00A8F8F00100E0D3
:205ECC006524204641E010F01FFA042814BF41F2081543F2C825214800784FF47A7404FB0B
:205EEC0000F13868491BA1F5FA62824206D2A1F57A61B0FBF1F24A43801A386068460DF1A9
:205F0C000E010CF067FF3868009998F82B2204FB010154430091611A8D4211DCA4F5FA6497
:205F2C008C42BCBF00F5FA60386098F89B11B8F878010CF0EBFC0146002089F8001002E003
:205F4C0099F80010652088F8F5110FB0BDE8F08FA010002008020020A0860100CB12002088
:205F6C002DE9F04F00289A461446ADF1340D00F0F38011F47C1F40F0EC8011F00F0F00F0D1
:205F8C00EB8007460020069005910B904FF000090A904FF0010B09904E46CDF810B0069DD4
:205FAC00089648460790059805990BEA000021EA0B014FEA4B0B401E059100F0AB80401ECF
:205FCC0070D0801E5DD0001F40F0BE8042F205000DF10E010FF064FA9DF80E60002E00F059
:205FEC00B3801CB1276694F86B0006900720152607F8010B022301A907F8016B42F201009F
:20600C0007F8013B0FF04CFA684603A90CF0E2FE06980DF08FFD0146019A00983E46401841
:20602C000090824206D8801ABDF80C300090581CADF80C00009B5008494680460904180471
:20604C00030C194300044B4610EB080041EB09010AF016FD0090BDF80C309DF80C009DF837
:20606C0000209DF8011006F8010B181206F8010B9DF8023006F8012B9DF803200935BF1D4D
:20608C0042E00220152607F8010B042307F8016BBAF1000F07F8013B0CBF09989AF80000E5
:2060AC002D1D4EE01CB1E76594F86B00069005201526049B07F8010B0DF10F0107F8016B33
:2060CC0042F2040007F8013B0FF0EAF902A810F0CDF906980DF02EFD02999DF80F609DF8F5
:2060EC000F30069AED1D4018000200EB6600B0FBF3F03E4602903F1D06F8012B9DF8081029
:20610C009DF809309DF80A2006F8011B06F8013B327018E00320152607F8010BBAF1000FD5
:20612C0007F8016B034607F8013B04BF0B9807F8010B05D09AF8000007F8010B9AF80100EE
:20614C006D1D07F8010BADB2059800287FF42BAF61E011F00F0F01D000205DE080468A4609
:20616C0002254FF4803908F1020609EA0A002AEA090A4FEA4909B0F580301AD0B0F58030AC
:20618C0014D0B0F500300ED0B0F5802009D0B0F5002004D0B0F580102AD1072404E006243C
:2061AC0002E0052400E00424002704E00224012701E001242746B01C214600F030F847B1B1
:2061CC0004F00F04C0F30A0141EAC42141F4004105E004F07F0400F0FF0141EA042106F8CE
:2061EC00011B0912471906F8011B3618B81C85B2BAF1000FB9D1022DD8BF00250BDDA81EAC
:20620C004FF6FE7708F8010BE819C0F3022040F0A00088F8000028460DB0BDE8F08FF0B592
:20622C0004460846ADF16C0D401E70D0401E0DD0801E00F00981401E00F0EF80401E00F0A7
:20624C00E180401E00F0AD80002042E142F2010007A90FF025F942F20B0008A90FF020F909
:20626C0042F206000DF165010FF01AF942F207000DF166010FF014F942F2050019A90FF0BC
:20628C000FF904A809F02CFE06460DF1670142F209000FF005F99DF86700002808BF00251F
:2062AC0003D0022011F043F80546204607A9042212F028F9241D08A90222204612F022F95E
:2062CC00A71C9DF864009DF865309DF866109DF8674007F8010B9DF8672007F8013B2B46B2
:2062EC0007F8011B610706F0070444EA916005F0030404AD40EA8410314607F8010B0124DD
:20630C0000953846019406F03FFB0A309AE042F206000DF165010FF0C3F842F207000DF154
:20632C0066010FF0BDF842F2040019A90FF0B8F804A809F0D5FD05460DF1670142F2080029
:20634C000FF0AEF89DF86700002808BF002303D0012010F0ECFF03469DF864009DF86570F3
:20636C0004F8010B9DF8666004F8017B9DF867209DF86770790704F8016B03F0030705F0D4
:20638C00070646EA916004AE40EA8710294604F8010B002700962046019706F0F5FA001D1C
:2063AC0050E042F2150011A90FF07AF813AF42F2160039460FF074F815AD42F217002946BB
:2063CC000FF06EF817AE42F2180031460FF068F8204611A9082212F095F8083408222046C0
:2063EC00394612F08FF804F1080708223846294612F088F8082207F10800314612F082F8CF
:20640C00202066E042F214000DF122010FF048F8BDF8221002200A1258E009A800212022D1
:20642C000BF076FF42F2130009A90FF039F809A812F07EFB024609A9204612F063F809A81D
:20644C0012F076FB80B244E042F20E0002A90FF027F80DF10A0142F20F000FF021F80DF1FA
:20646C000B0142F20A000FF01BF803A942F210000FF016F80DF10D0142F211000FF010F85F
:20648C000DF10E0142F212000FF00AF8BDF808009DF80B209DF80C709DF80D609DF80E5019
:2064AC009DF80A1004F8010B02F00102001204F8010B07F0010042EA400206F0010042EA81
:2064CC00800205F0070042EA4012042004F8011B22701BB0F0BD70472DE9F04F044609AF60
:2064EC009A4691468846ADF1140D019412F075FE98490D680290A54208BF4D68974C6FF0B5
:20650C00010B35B105F1800012F094FB002840F00F8111F09DFA061C00F0158104F1B400A5
:20652C0012F051FEC6F80C80B4F98C0099F80430401C86F83E306FF31F30A4F88C00C6F8D7
:20654C0008A0B4F88C00019AB0878348326197E80C004FF0000B2021DC4606F11807194078
:20656C00104087E8030006F1200383E80018C6F834B062463263D9F80800B06386F83F2008
:20658C00D9F80070009207B1776398F80C0000F00F00022804BFD8F80800306308274046E2
:2065AC004368002B18BF002F40F0BE8000886FF30900B0F5305F18BF022006D196F83F00C1
:2065CC0040F0100086F83F00082006F1180191E8800106F1180342EA080240EA070183E89B
:2065EC000600D4F8F8000199814207D194F80401410824BF00F0FE0084F80401002D70D0F7
:20660C00039504F1700101980D68884610F078FEB1465F465FEA000A0FD1D8F800202AB184
:20662C00D4F8801030460BF03FFC18B9BAF1000F03D103E001275D4630E0554645B12A6806
:20664C00304629460BF030FC38BB002A1546F6D1039831460DF0ACF8051C02D0A9451AD164
:20666C00E5B9D9F80C10D8F80450087B00F00F00022813D1087BC01140080FD2002D4AD10A
:20668C00D4F8800050B1D4F8801030463A460BF00BFC18B93FE0082700E00227BB46BBF178
:2066AC00010F04D104F17000494611F036FBBBF1020F0BD12F682A6804F170001FB9494635
:2066CC0011F01AFB02E0494611F005FBBBF1080F04D196F83E10284611F0EFFC3BF0080025
:2066EC0004D104F17000314611F006FB1BF1030F11D096F83F00B6F93CB0009940F080002B
:20670C0086F83F00019F87F8A410206F86421AD10DF080F817E0B4F98C0000F6FF706FF32F
:20672C001F30A4F88C0003E07F1E1846FFB237E794F8040140F0040084F8040101986FF0EB
:20674C00020BC4F8F800029819F0EEF8584605B0BDE8F08F70220020FFEFFF9F9821002055
